{
  "address": "0x03C3C933C3e9734227883db92B8D3c0Ac8Ea38bC",
  "abi": [
    {
      "inputs": [
        {
          "internalType": "address",
          "name": "_token",
          "type": "address"
        },
        {
          "internalType": "uint256",
          "name": "_requiredBalance",
          "type": "uint256"
        }
      ],
      "stateMutability": "nonpayable",
      "type": "constructor"
    },
    {
      "anonymous": false,
      "inputs": [
        {
          "indexed": true,
          "internalType": "address",
          "name": "previousOwner",
          "type": "address"
        },
        {
          "indexed": true,
          "internalType": "address",
          "name": "newOwner",
          "type": "address"
        }
      ],
      "name": "OwnershipTransferred",
      "type": "event"
    },
    {
      "inputs": [
        {
          "internalType": "address",
          "name": "user",
          "type": "address"
        }
      ],
      "name": "getTokenBalance",
      "outputs": [
        {
          "internalType": "uint256",
          "name": "",
          "type": "uint256"
        }
      ],
      "stateMutability": "view",
      "type": "function"
    },
    {
      "inputs": [
        {
          "internalType": "address",
          "name": "user",
          "type": "address"
        }
      ],
      "name": "hasAccess",
      "outputs": [
        {
          "internalType": "bool",
          "name": "",
          "type": "bool"
        }
      ],
      "stateMutability": "view",
      "type": "function"
    },
    {
      "inputs": [],
      "name": "owner",
      "outputs": [
        {
          "internalType": "address",
          "name": "",
          "type": "address"
        }
      ],
      "stateMutability": "view",
      "type": "function"
    },
    {
      "inputs": [],
      "name": "renounceOwnership",
      "outputs": [],
      "stateMutability": "nonpayable",
      "type": "function"
    },
    {
      "inputs": [],
      "name": "requiredBalance",
      "outputs": [
        {
          "internalType": "uint256",
          "name": "",
          "type": "uint256"
        }
      ],
      "stateMutability": "view",
      "type": "function"
    },
    {
      "inputs": [],
      "name": "token",
      "outputs": [
        {
          "internalType": "contract IERC20",
          "name": "",
          "type": "address"
        }
      ],
      "stateMutability": "view",
      "type": "function"
    },
    {
      "inputs": [
        {
          "internalType": "address",
          "name": "newOwner",
          "type": "address"
        }
      ],
      "name": "transferOwnership",
      "outputs": [],
      "stateMutability": "nonpayable",
      "type": "function"
    },
    {
      "inputs": [
        {
          "internalType": "uint256",
          "name": "_newBalance",
          "type": "uint256"
        }
      ],
      "name": "updateRequiredBalance",
      "outputs": [],
      "stateMutability": "nonpayable",
      "type": "function"
    }
  ],
  "transactionHash": "0xe4ab988f819a7d145cd9d79745f2957f3ff937c88960d4c73699f9be7e5c4260",
  "args": [
    "0xf04e48d97fe387A5CBc01285d6E06A3b8Bf27F84",
    10
  ],
  "numDeployments": 1,
  "solcInputHash": "37398e8d18fa2c36908becf970e06c54",
  "bytecode": "0x608060405234801561001057600080fd5b5060405161051238038061051283398101604081905261002f916100b1565b61003833610061565b600180546001600160a01b0319166001600160a01b0393909316929092179091556002556100eb565b600080546001600160a01b038381166001600160a01b0319831681178455604051919092169283917f8be0079c531659141344cd1fd0a4f28419497f9722a3daafe3b4186f6b6457e09190a35050565b600080604083850312156100c457600080fd5b82516001600160a01b03811681146100db57600080fd5b6020939093015192949293505050565b610418806100fa6000396000f3fe608060405234801561001057600080fd5b50600436106100885760003560e01c80638da5cb5b1161005b5780638da5cb5b146100d957806395a078e8146100fe578063f2fde38b14610121578063fc0c546a1461013457600080fd5b806308560ace1461008d5780633aecd0e3146100a95780636506e2f1146100bc578063715018a6146100d1575b600080fd5b61009660025481565b6040519081526020015b60405180910390f35b6100966100b7366004610380565b610147565b6100cf6100ca3660046103b0565b6101bc565b005b6100cf6101c9565b6000546001600160a01b03165b6040516001600160a01b0390911681526020016100a0565b61011161010c366004610380565b6101dd565b60405190151581526020016100a0565b6100cf61012f366004610380565b610258565b6001546100e6906001600160a01b031681565b6001546040516370a0823160e01b81526001600160a01b03838116600483015260009216906370a0823190602401602060405180830381865afa158015610192573d6000803e3d6000fd5b505050506040513d601f19601f820116820180604052508101906101b691906103c9565b92915050565b6101c46102d6565b600255565b6101d16102d6565b6101db6000610330565b565b6002546001546040516370a0823160e01b81526001600160a01b0384811660048301526000939216906370a0823190602401602060405180830381865afa15801561022c573d6000803e3d6000fd5b505050506040513d601f19601f8201168201806040525081019061025091906103c9565b101592915050565b6102606102d6565b6001600160a01b0381166102ca5760405162461bcd60e51b815260206004820152602660248201527f4f776e61626c653a206e6577206f776e657220697320746865207a65726f206160448201526564647265737360d01b60648201526084015b60405180910390fd5b6102d381610330565b50565b6000546001600160a01b031633146101db5760405162461bcd60e51b815260206004820181905260248201527f4f776e61626c653a2063616c6c6572206973206e6f7420746865206f776e657260448201526064016102c1565b600080546001600160a01b038381166001600160a01b0319831681178455604051919092169283917f8be0079c531659141344cd1fd0a4f28419497f9722a3daafe3b4186f6b6457e09190a35050565b60006020828403121561039257600080fd5b81356001600160a01b03811681146103a957600080fd5b9392505050565b6000602082840312156103c257600080fd5b5035919050565b6000602082840312156103db57600080fd5b505191905056fea2646970667358221220edce7778885fda72e6d8fe0e48356877c4ed3541a6b0dba13a81b4587809639364736f6c63430008110033",
  "devdoc": {
    "kind": "dev",
    "methods": {
      "owner()": {
        "details": "Returns the address of the current owner."
      },
      "renounceOwnership()": {
        "details": "Leaves the contract without owner. It will not be possible to call `onlyOwner` functions anymore. Can only be called by the current owner. NOTE: Renouncing ownership will leave the contract without an owner, thereby removing any functionality that is only available to the owner."
      },
      "transferOwnership(address)": {
        "details": "Transfers ownership of the contract to a new account (`newOwner`). Can only be called by the current owner."
      }
    },
    "version": 1
  },
  "userdoc": {
    "kind": "user",
    "methods": {},
    "version": 1
  },
  "storageLayout": {
    "storage": [
      {
        "astId": 7,
        "contract": "contracts/TokenGate.sol:TokenGateContract",
        "label": "_owner",
        "offset": 0,
        "slot": "0",
        "type": "t_address"
      },
      {
        "astId": 223,
        "contract": "contracts/TokenGate.sol:TokenGateContract",
        "label": "token",
        "offset": 0,
        "slot": "1",
        "type": "t_contract(IERC20)190"
      },
      {
        "astId": 225,
        "contract": "contracts/TokenGate.sol:TokenGateContract",
        "label": "requiredBalance",
        "offset": 0,
        "slot": "2",
        "type": "t_uint256"
      }
    ],
    "types": {
      "t_address": {
        "encoding": "inplace",
        "label": "address",
        "numberOfBytes": "20"
      },
      "t_contract(IERC20)190": {
        "encoding": "inplace",
        "label": "contract IERC20",
        "numberOfBytes": "20"
      },
      "t_uint256": {
        "encoding": "inplace",
        "label": "uint256",
        "numberOfBytes": "32"
      }
    }
  }
}